:02000002D0002C
:1040000000400D00505E0D00000006000E0005018E
:0840100004017E050000000020
:04401800F8580D0047
:10401C0009480A49884208B505D0094A824202D0AB
:10402C00121A01F020FC0748074A0021121A01F06D
:10403C0025FC014808BD00BF5CE30320C05D0D00FA
:10404C00C4E30320C4E30320F0E7032070B500F0C1
:10405C00DFFE074C074BE41AA40800251E46A542B8
:10406C0004D056F8253098470135F8E770BD00BFED
:10407C00B85D0D00805D0D0000F015B808B500F0BE
:10408C0071F8BDE8084000F091BE00F09FBA00F056
:10409C00A5BA00F0A3BA0078B0FA80F040097047D6
:1040AC0001230370704773B500250120012400F033
:1040BC0001FA08262B466A4644F6206128460095EC
:1040CC000194ADF8006000F071FA00F08FFF4FF42E
:1040DC00E13100F07FFF2146042001F0EBF921468D
:1040EC00052001F0E7F92146062001F0E3F921460D
:1040FC00304601F0DFF92146072001F0DBF92146BB
:10410C00122001F0D7F92146132001F0D3F92946EA
:10411C00032001F0CFF92946022001F0CBF9294602
:10412C00182001F0C7F900F07BFB042100F096FB8E
:10413C002946182001F0BEF92146072001F0CBF9E1
:10414C002146304601F0C7F92146304601F0C3F94B
:10415C002146042001F0BFF92146052001F0BBF9EE
:10416C0002B070BD08B50021122001F0B4F94FF473
:10417C00FA7000F0D5FD0121122001F0ACF94FF4DA
:10418C00FA7000F0CDFD0021132001F0A4F94FF4DA
:10419C00FA7000F0C5FD1320012101F09CF94FF4D9
:1041AC00FA70BDE8084000F0BBBD08B500F016F889
:1041BC0000210120BDE8084000F08CB908B5024B85
:1041CC001B689B68019308BD6802030008B5024B8D
:1041DC001B68DB68019308BD6802030008B5024B3D
:1041EC001B681B68019308BD2C02030008B5024B29
:1041FC001B689B68019308BD2C02030008B5024B99
:10420C001B68DB68019308BD2C02030008B5024B48
:10421C001B681B69019308BD2C02030008B5024BF7
:10422C001B68DB69019308BD3002030008B5024B23
:10423C001B681B6A019308BD3002030008B5024BD2
:10424C001B685B68019308BD1802030008B5024B9C
:10425C001B68DB68019308BD1802030008B5024B0C
:10426C001B685B69019308BD1802030008B5024B7B
:10427C001B689B68019308BD7402030008B5024BD0
:10428C001B681B6C019308BD7402030008B5034B3B
:10429C001B68D3F89830019308BD0000740203002A
:1042AC0008B5034B1B68D3F8F030019308BD000030
:1042BC007402030008B5024B1B689B68019308BD90
:1042CC004802030008B5024B1B681B69019308BD2B
:1042DC004802030008B5024B1B685B69019308BDDB
:1042EC004802030008B5024B1B681B6B019308BD09
:1042FC004802030008B5024B1B685B6C019308BDB8
:10430C004802030008B5024B1B68DB6C019308BD27
:10431C004802030008B5024B1B685B6D019308BD96
:10432C004802030008B5024B1B685B69019308BD8A
:10433C006402030008B5024B1B681B68019308BD9F
:10434C003C02030008B5024B1B68DB68019308BDF7
:10435C003C02030008B5024B1B681B69019308BDA6
:10436C003C02030008B5024B1B685B69019308BD56
:10437C003C02030008B5024B1B689B69019308BD06
:10438C003C02030008B5024B1B68DB69019308BDB6
:10439C003C02030008B5024B1B681B6A019308BD65
:1043AC003C02030008B5024B1B689B6A019308BDD5
:1043BC003C02030008B5024B1B681B6A019308BD45
:1043CC002802030008B5024B1B685B6A019308BD09
:1043DC002802030008B5024B1B689B6A019308BDB9
:1043EC002802030008B5024B1B68DB6A019308BD69
:1043FC002802030008B5024B1B681B6B019308BD18
:10440C002802030008B5024B1B685B6B019308BDC7
:10441C002802030008B5024B1B681B6C019308BDF6
:10442C002802030008B5024B1B681B68019308BDEA
:10443C004C02030008B5024B1B685B68019308BD76
:10444C004C02030008B5024B1B681B69019308BDA5
:10445C004C02030008B5024B1B685B69019308BD55
:10446C004C02030008B5024B1B689B69019308BD05
:10447C004C02030008B5024B1B68DB69019308BDB5
:10448C004C02030008B5024B1B681B6A019308BD64
:10449C004C02030008B5024B1B685B6B019308BD13
:1044AC006002030008B5024B1B681B6D019308BD2D
:1044BC006002030008B5024B1B685B68019308BDE2
:1044CC002002030008B5024B1B685B69019308BD11
:1044DC002002030008B5024B1B68DB6A019308BD80
:1044EC002002030008B5034B1B68D3F888300193F6
:1044FC0008BD00002002030008B5034B1B68D3F86D
:10450C009430019308BD00002002030008B5024B53
:10451C001B685B68019308BD4002030008B5024BA1
:10452C001B689B68019308BD4002030008B5024B51
:10453C001B68DB68019308BD4002030008B5024B01
:10454C001B681B69019308BD4002030008B5024BB0
:10455C001B685B69019308BD4002030008B5024B60
:10456C001B689B69019308BD4002030008B5024B10
:10457C001B68DB69019308BD4002030008B5024BC0
:10458C001B681B6A019308BD4002030008B5024B6F
:10459C001B681B6B019308BD4002030008B5024B5E
:1045AC001B685B6B019308BD4002030008B5024B0E
:1045BC001B689B6B019308BD4402030008B5024BBA
:1045CC001B68DB6B019308BD4402030008B5024B6A
:1045DC001B681B68019308BD1C02030008B5024B45
:1045EC001B685B68019308BD1C0203000022114686
:1045FC004068FFF7C3BF002211464068FFF7CEBFEB
:10460C0000224068FFF7C2BF002281F00101406820
:10461C00FFF7ACBF00231A4619464068FFF79EBF50
:10462C0000231A4619464068FFF790BF0022114636
:10463C004068FFF783BF002211464068FFF76EBF4A
:10464C00002202214068FFF771BF00231A46406820
:10465C00FFF75CBF024B03225A60024A1A60704794
:10466C00C8E3032014590D00704710B510210446FF
:10467C0000F091FF204610BD70B5084B0360044656
:10468C0000250E4640F80C5FFFF72CFE30462671D5
:10469C00FFF7C4FDA560204670BD00BF48590D0052
:1046AC000079FFF7C3BD0000044B00204FF6FF72EA
:1046BC00187058809A80FFF7FDBE00BFD0E303202E
:1046CC0070470020704710B51421044600F063FFBA
:1046DC00204610BDFFF7DBBC08B50A20024A0021BA
:1046EC00FFF7D8FE08BD00BF59420D0010B5036896
:1046FC0004469B689847A368013BA3602BB92368C9
:10470C002046DB68BDE81040184710BD10B50023EB
:10471C000370044B04461868FFF7F4FD0123237063
:10472C00204610BDE0E3032010B5037804461BB10E
:10473C00024B1868FFF7EEFD204610BDE0E30320A6
:10474C0008B582798B799A4206D1062201F07CF861
:10475C00B0FA80F0400908BD002008BD10B583698F
:10476C00C26903EBC2029342184606D0046824883F
:10477C008C4203F10803F6D110BD002010BD10B51A
:10478C000A6852F8023F03605368436010BD1FB5BE
:10479C0002680B6812881B889A420C460CD10146A1
:1047AC006846FFF7ECFF214602A8FFF7E8FF02A9D5
:1047BC006846FFF7C5FF00B9002004B010BD00002B
:1047CC0010B504463420FFF760FC014668B10023A5
:1047DC00036043608360C360036143618361C361B1
:1047EC00036243628362C3620363216019B90A4A9C
:1047FC000A20FFF74FFE0020FFF738FD20B1064AD4
:10480C0000210A20FFF746FE002221680348FFF72B
:10481C0047FD204610BD00BF59420D00014B0D0055
:10482C0010B50A4C2368DB070ED42046FFF733FC87
:10483C0050B10748FFF7C4FF2046FFF731FC054A8B
:10484C000549034800F0A2FE014810BDDCE303203B
:10485C00D8E30320C4E3032015490D0013B50C461F
:10486C0001A8FFF753FF00212046FFF707FD044680
:10487C0001A8FFF759FF204602B010BD0B6803607A
:10488C0013B15A6801325A60704710B5044600687B
:10489C0028B14368013B43600BB9FFF727FF204663
:1048AC0010BD70B504684368054604EBC306A64208
:1048BC0004D0201DFFF7E9FF0834F8E72868FFF75C
:1048CC008DFE284670BD70B504684368054604EB40
:1048DC00C306A64204D0201DFFF7D7FF0834F8E723
:1048EC002868FFF77BFE284670BD10B5046904F1FB
:1048FC001800FFF7E8FF04F10C00FFF7D2FF204689
:10490C00BDE81040FFF7C3BBF8B504680746C4B157
:10491C00A569E36905EBC306AE4204D0281DFFF779
:10492C00B4FF0835F8E7A069FFF758FE04F10C0056
:10493C00FFF7C9FF2046FFF7B4FF3421204600F0F3
:10494C002AFE3846F8BD000073B5002505604560A9
:10495C0006462420FFF799FB044678B103464FF630
:10496C00FF7223F8022BC0F802505D608572C5728D
:10497C00C560056145618561C56105620023142030
:10498C000193FFF782FB034628B10122426082604B
:10499C00084A0260046102A8726840F8042D736032
:1049AC003460FFF772FF33680BB9FFF795FE3046A2
:1049BC0002B070BD58590D00884270B515461AD911
:1049CC00904219D2A1F10806511A0439151F441846
:1049DC002B1F9E4225D0042C07D055F8043C44F8DC
:1049EC00043C29462046FFF749FF2846FFF74DFFB8
:1049FC00083D083CECE714D00C1D061D231F9D42FE
:104A0C000FD0042E07D054F8043C46F8043C214641
:104A1C003046FFF733FF2046FFF737FF08340836E0
:104A2C00ECE770BD2DE9F041046843680546884603
:104A3C0004EBC307A74218D041462046FFF7A7FE58
:104A4C00064608B90834F5E78CB1201DFFF71DFFA9
:104A5C002B686A6804F1080103EBC2022046FFF7D9
:104A6C00ABFF6B68013B6B6002E0002600E0264662
:104A7C003046BDE8F081F7B5044651F8043B476871
:104A8C00009301A8FFF7FAFE6668A3689E4214DB48
:104A9C000136002E0BDDF000FFF798FD054618B32C
:104AAC0094E8060001EBC202FFF786FF00E0002548
:104ABC002068FFF793FD2560A6602668626806EB08
:104ACC00C70506EBC202294605F10800FFF774FF83
:104ADC0035B1009B46F8373001A9281DFFF7CEFEF3
:104AEC00636801336360012501A8FFF7CEFE2846F9
:104AFC0003B0F0BD2DE9F04104468EB003A80D467D
:104B0C00FFF704FE2368032B02D0042B42D087E06E
:104B1C0004A8FFF719FF049B22891A806268049984
:104B2C0052F8083FC1F802305368C1F8063007A8A4
:104B3C00049B069305A9FFF7A1FE06A905F1180031
:104B4C00FFF799FF044607A8FFF79FFE2023069363
:104B5C0074B9364B009306AA234635490794322084
:104B6C00FFF7A0FC049B21461888FFF78FFB0DE094
:104B7C00304A0092002306AA2D4907930120FFF723
:104B8C0091FC6B6A13B1E96A04A8984705A8FFF772
:104B9C007CFE45E021892846FFF7E0FD074600280A
:104BAC003ED00468A369E1694FF6FF72228003EBE3
:104BBC00C101994203D053F8080B4280F9E7E6682B
:104BCC00236906EBC308B04504D0301DFFF75DFE2A
:104BDC000836F8E700232361A669E36906EBC308EE
:104BEC00B04504D0301DFFF750FE0836F8E700231F
:104BFC00E361A372E372AB6A13B1296B3846984731
:104C0C0020230D4A069300920023094907930120A3
:104C1C0006AAFFF747FC394605F11800FFF702FF1B
:104C2C0003A8FFF781FD0EB0BDE8F081CE590D0051
:104C3C006C590D00F4590D00115A0D000248002357
:104C4C000360FFF757BB00BFE0E30320F8B506464F
:104C5C000D468F180024BD420CD0336815F8011B8B
:104C6C009B6830469847002801DB0444F3E7002C8E
:104C7C0008BF04462046F8BD70B505460C460846EC
:104C8C0049B100F02BFE2B68024621462846DB6812
:104C9C00BDE87040184770BD03689B68184730B575
:104CAC008BB00B4600218DF82410012A98BF0A22E4
:104CBC000DF12304B3FBF2F505FB123303F0FF03F4
:104CCC00092B94BF30333733DBB2214604F801395A
:104CDC002B46002DEED1FFF7CFFF0BB030BD10B43B
:104CEC002AB903685DF8044B9B68C9B21847D2B265
:104CFC005DF8044BFFF7D3BFFFF7F1BF014B024A3E
:104D0C001A607047E4E303207F5B0D00024B1A68C6
:104D1C00024B1A60704700BF5CE30320E8E30320FA
:104D2C000021FFF7CFBB10B58368044613B10322F3
:104D3C0001469847204610BD10B50446FFF7F3FF17
:104D4C00204610BD0348044A04490023836000F048
:104D5C001DBC00BFECE30320C4E30320454D0D0054
:104D6C0008B50F4B33B100F041F903681B69984744
:104D7C0000280DDC0B4B33B100F0BAF903681B694A
:104D8C009847002807DC084B43B1AFF3008008BDFF
:104D9C00AFF30080EEE7AFF30080F4E708BD00BF8F
:104DAC0000000000000000000000000008B5FFF744
:104DBC00D7FFFFF753FA014B186008BD34E7032007
:104DCC0007B5002300931A466FF07701FFF794FBA9
:104DDC0003B05DF804FB000007B543880A2B08D02C
:104DEC00502B09D1094B1B683BB103B05DF804EBA8
:104DFC001847FFF7E5FF06E0002300931A466FF013
:104E0C007701FFF779FB03B05DF804FBFCE30320AB
:104E1C0010B5FFF713FA044600F038FD074B13B139
:104E2C002046AFF3008000210448FFF7C7FB0021A8
:104E3C000348BDE81040FFF755BB00BF0000000061
:104E4C00E54D0D00704710B51821044600F0A3FB8A
:104E5C00204610BDF0B5037D062B8DB00E4600F13B
:104E6C0004074FF0000402D000F1080518E00CAD67
:104E7C00394605F8304D2F232A460A20FFF752FAFF
:104E8C00284600F02BFD33680246DB682946304685
:104E9C0098470FE024B12E213046FFF7FDFE044465
:104EAC0015F8011D0A223046FFF726FFBD420444C7
:104EBC00F0D120460DB0F0BD10B5054B04461122C3
:104ECC0040F8043B002100F0D9FC204610BD00BF87
:104EDC00205C0D000346074A10B543F8042B01F182
:104EEC00100251F8044B43F8044B9142F9D10A7863
:104EFC001A7010BD205C0D0010B59DF8084044EAF6
:104F0C00032343EA024242EA016104234160037530
:104F1C0010BD37B50D788B784A78C9780091294641
:104F2C00FFF7EAFF03B030BD41747047704708B516
:104F3C000021007CFFF796FA30EA200028BF4FF0E2
:104F4C00FF3008BD08B50121007CFFF78BFA30EA71
:104F5C00200028BF4FF0FF3008BD08B5007CFFF7DC
:104F6C0079FA20EAE07008BD08B5007CFFF76AFA10
:104F7C0020EAE07008BD007CFFF784BA10B514215C
:104F8C00044600F008FB204610BD38B50446007CF2
:104F9C000D46FFF75FFA002801DC607C28B129463A
:104FAC00207CFFF767FA20EAE07038BD10B50446A4
:104FBC00002363604FF47A73A360054B23600123D5
:104FCC000846217463741146FFF72CFA204610BD75
:104FDC00345C0D000022007CFFF72CBA10B51422B3
:104FEC000446002100F04AFC204610BD30B50E4DA1
:104FFC0087B001A8FFF7F2FF296811F0010410D166
:10500C002846FFF748F860B101AA21460748FFF788
:10501C00CDFF2846FFF744F8054A0649034800F03F
:10502C00B5FA024807B030BD00E4032004E40320C5
:10503C00C4E30320394F0D0070474174704708B525
:10504C00007CFFF7AFF920EAE07008BD08B5007CE2
:10505C00FFF780F920EAE07008BD08B5007CFFF787
:10506C0089F930EA200028BF4FF0FF3008BD08B5A1
:10507C00007CFFF777F930EA200028BF4FF0FF30B3
:10508C0008BD007CFFF77EB910B51421044600F072
:10509C0082FA204610BD70B5457C04460E4625B9F3
:1050AC00007CFFF77FF9002805DD3146207CBDE848
:1050BC007040FFF747B9284670BD000010B5044694
:1050CC0008461146002262604FF47A72A260054ACB
:1050DC0022600122207462741A46FFF72BF92046D5
:1050EC0010BD00BF645C0D00007CFFF753B90000DD
:1050FC0038B50C4D296811F0010411D12846FEF782
:10510C00CAFF68B1084A094B09482146FFF7D6FF88
:10511C002846FEF7C5FF074A0749054800F036FA4E
:10512C00034838BDB0E40320B4E403202CE403208E
:10513C0018E40320C4E3032045500D007047F8B574
:10514C00064615460C468F18BC4206D0336814F838
:10515C00011B9B6830469847F6E72846F8BD0022AD
:10516C00007CFFF727B90021007CFFF72BB9002149
:10517C00007CFFF72FB90021007CFFF733B9002129
:10518C00007CFFF737B910B51421044600F003FA80
:10519C00204610BD10B504464FF47A730846A36040
:1051AC000021044B207461602360FFF733F9204623
:1051BC0010BD00BF945C0D000021007CFFF722B9EC
:1051CC00002211464068FFF7D9B900221146406809
:1051DC00FFF7E4B900224068FFF7D8B9002281F04C
:1051EC0001014068FFF7C2B900231A46012140684B
:1051FC00FFF7B4B900231A4619464068FFF7A6B961
:10520C00002211464068FFF799B900221146406808
:10521C00FFF784B9002202214068FFF787B9002309
:10522C001A464068FFF772B938B5054688B104686C
:10523C004CB1A3681BB1032221462046984710218C
:10524C00204600F0A8F928461421BDE8384000F0AB
:10525C00A2B938BD10B103685B681847704710B528
:10526C0003680446BBB15868FFF724F878B9236883
:10527C005A7C12B95868FFF725F823685868FFF76D
:10528C0029F820680023236028B1FFF7CDFF2068A0
:10529C0008B1FFF7C9FF204610BD000038B50C4B14
:1052AC0003600446D0F8CC0108B1FEF7F2FED4F846
:1052BC00C45135B12846FFF7D2FF0421284600F02F
:1052CC006AF9A06808B1FFF7C5FF204638BD00BFDA
:1052DC00BC5C0D0038B50E4C0E4B23600025022330
:1052EC0004F5E4706360A560C4F8C451C4F8C851F7
:1052FC00FFF700F8084BC4F8CC5184F8D051236068
:10530C002046064A0649BDE8384000F03FB900BFC8
:10531C0038E50320F05C0D00BC5C0D00C4E30320F9
:10532C00A9520D0000231A464068FFF7EFB800227F
:10533C0002214068FFF7FAB8002211464068FFF7D7
:10534C00EDB8002211464068FFF7F8B800231A4662
:10535C0019464068FFF7FAB800231A461946406808
:10536C00FFF7FCB8002281F001014068FFF7FEB89E
:10537C0000224068FFF70AB9002211464068FFF787
:10538C000DB9002211464068FFF7F8B82DE9F0433B
:10539C00002495B016460D460746FFF78DFD2146B5
:1053AC0020220CA8009400F069FA40230C932146AB
:1053BC006B460CAA3046FEF709FF0446002844D180
:1053CC00024601216868FFF7B9F80221804622469F
:1053DC006868FFF7B3F8009E81462146002E34D052
:1053EC00002932D17368022B02D00A2B09D02AE093
:1053FC00B8F1000F27D0716938460431FFF789FDE9
:10540C0020E0B9F1000F1ED07469112201A800F040
:10541C0035FA06238DF8143001AD04F10803183465
:10542C00186859682A4603C20833A3421546F7D1B7
:10543C0001A906A807ADFFF74DFD0FCD3C1D0FC40C
:10544C002B6823700121F669C8E70098FEF7B6FEB9
:10545C00384615B0BDE8F083024B034A1A600022AF
:10546C005A6070470CE70320F05C0D0010B5044641
:10547C000F48FFF715F928B1A4F10B03022B01D843
:10548C00002010BD00F062F8FFF796FE08B1012C69
:10549C00F6D9FFF72DFEFFF727FE18B1A4F109038B
:1054AC00012BEDD91E2C8CBF0020012010BD00BF9C
:1054BC0014E703201E2838B504460D460AD8FF29E8
:1054CC0008D0FFF7D3FF28B129462046BDE8384065
:1054DC00FEF78CBE38BD38B504460D46FEF78EFE81
:1054EC00FF2810D0062804D84D2323FA00F0C30758
:1054FC0009D42046FFF7BAFF28B129462046BDE85B
:10550C003840FEF783BE38BD70B50C4C0C4E0D4DBB
:10551C0000212046FFF7B0F820460B4C32462946B6
:10552C0000F034F801212046FFF7A6F83246294650
:10553C002046BDE8704000F029B800BF14E70320F6
:10554C00C4E3032075460D0024E7032038B50B4D4A
:10555C00296811F001040FD12846FEF79CFD58B1C3
:10556C0021460748FFF716FE2846FEF799FD054A27
:10557C000549034800F00AF8014838BD38E7032014
:10558C003CE70320C4E3032049510D000B460146C0
:10559C00184600F04BB9FEF77ABD0000184B1A689C
:1055AC00D1075CBF01221A60164B1A68D2075CBF88
:1055BC0001221A60144B1A68D0075CBF01221A60D2
:1055CC00124B1A68D1075CBF01221A60104B1A6883
:1055DC00D2075CBF01221A600E4B1A68D0075CBF61
:1055EC0001221A600C4B1A68D1075CBF01221A60A9
:1055FC000A4B1A68D2075CBF01221A60704700BFC1
:10560C006CE7032068E7032064E7032060E70320CE
:10561C005CE7032058E7032054E7032050E70320FE
:10562C00244B1A68D0075CBF01221A60224B1A68FF
:10563C00D1075CBF01221A60204B1A68D2075CBFED
:10564C0001221A601E4B1A68D0075CBF01221A6037
:10565C001C4B1A68D1075CBF01221A601A4B1A68DE
:10566C00D2075CBF01221A60184B1A68D0075CBFC6
:10567C0001221A60164B1A68D1075CBF01221A600E
:10568C00144B1A68D2075CBF01221A60124B1A68BD
:10569C00D0075CBF01221A60104B1A68D1075CBF9F
:1056AC0001221A600E4B1A68D2075CBF01221A60E5
:1056BC00704700BF9CE7032098E7032094E7032082
:1056CC0090E703208CE7032088E7032084E703207E
:1056DC0080E703207CE7032078E7032074E70320AE
:1056EC0070E70320244B1A68D0075CBF01221A60B4
:1056FC00224B1A68D1075CBF01221A60204B1A6832
:10570C00D2075CBF01221A601E4B1A68D0075CBF1F
:10571C0001221A601C4B1A68D1075CBF01221A6067
:10572C001A4B1A68D2075CBF01221A60184B1A6810
:10573C00D0075CBF01221A60164B1A68D1075CBFF8
:10574C0001221A60144B1A68D2075CBF01221A603E
:10575C00124B1A68D0075CBF01221A60104B1A68F2
:10576C00D1075CBF01221A600E4B1A68D2075CBFCE
:10577C0001221A60704700BFCCE70320C8E7032062
:10578C00C4E70320C0E70320BCE70320B8E70320ED
:10579C00B4E70320B0E70320ACE70320A8E703201D
:1057AC00A4E70320A0E70320184B1A68D1075CBFBD
:1057BC0001221A60164B1A68D2075CBF01221A60CC
:1057CC00144B1A68D0075CBF01221A60124B1A687E
:1057DC00D1075CBF01221A60104B1A68D2075CBF5C
:1057EC0001221A600E4B1A68D0075CBF01221A60A6
:1057FC000C4B1A68D1075CBF01221A600A4B1A685D
:10580C00D2075CBF01221A60704700BFECE703208F
:10581C00E8E70320E4E70320E0E70320DCE70320CC
:10582C00D8E70320D4E70320D0E7032010B5054CBC
:10583C0013462CB10A4601460220AFF3008010BD7E
:10584C00204610BD0000000010B501390244904202
:10585C0007D010F8013B11F8014FA342F7D0181BE9
:10586C0010BD002010BD10B5431E0A44914204D057
:10587C0011F8014B03F8014FF8E710BD0244034641
:10588C00934202D003F8011BFAE7704738B5124B6C
:10589C001C68A36B0546D3B91820FEF797FE43F29C
:1058AC000E33A06303804AF6CD33438041F2342398
:1058BC0083804EF26D63C3804DF6EC630381052348
:1058CC0043810B23838101220023C0E90423A36BB2
:1058DC0000221D615A6138BDC0E30320034613F852
:1058EC00012B002AFBD1181A013870471D400D00FE
:1058FC0059400D0085400D0089400D00000000004E
:10590C00000000000000000057460D004D460D0041
:10591C0043460D0039460D002D460D0021460D0065
:10592C0015460D000D460D0003460D00F9450D0002
:10593C0099530D00000000000000000075460D009A
:10594C0077460D000000000000000000CD460D0061
:10595C00D3460D00F7480D00E1460D00CF460D0073
:10596C00776972696E672E626C650053746172742C
:10597C0020646973636F766572696E6720736572F4
:10598C0076696365732E0053746172742064697355
:10599C00636F766572696E672063686172616374A8
:1059AC0065726973746963732E0050656572206447
:1059BC006576696365206973206D697373696E67B9
:1059CC0021004661696C656420746F20617070659C
:1059DC006E6420706565722043656E7472616C2014
:1059EC006465766963652E00436F6E6E65637465DE
:1059FC00642062792043656E7472616C20646576F4
:105A0C006963652E00446973636F6E6E65637465BC
:105A1C00642062792072656D6F74652064657669A7
:105A2C0063652E0043616E6E6F7420616464206E3A
:105A3C0065772070656572206465766963652E00F4
:105A4C004E6577207065726970686572616C20694B
:105A5C007320636F6E6E65637465642E00466169B6
:105A6C006C656420746F20617070656E642064696D
:105A7C0073636F76657265642063686172616374C9
:105A8C00657269737469632E004661696C65642084
:105A9C00746F20617070656E6420646973636F76D7
:105AAC006572656420736572766963652E00466164
:105ABC00696C656420746F20617070656E64206C15
:105ACC006F63616C20636861726163746572697382
:105ADC007469632E004475706C696361746564202D
:105AEC00636861726163746572697374696320635E
:105AFC00616E6E6F742062652061646465642E0053
:105B0C00626175640053657269616C0053657269FA
:105B1C00616C31007479706500706172616D006345
:105B2C006D6400696400686E64007374726D006665
:105B3C00696C74006C766C0061646448616E646CB2
:105B4C0065720072656D6F766548616E646C657226
:105B5C0000656E756D48616E646C657273004A53B6
:105B6C004F4E53747265616D4C6F6748616E646C17
:105B7C0065720061707000253031307520005D2039
:105B8C00002564002C200028293A2000205B0063AB
:105B9C006F6465203D200025690064657461696C43
:105BAC0073203D20000D0A0066006C6E00666E00CE
:105BBC00636F64650064657461696C006E6F6E651B
:105BCC0000747261636500696E666F007761726E56
:105BDC00006572726F720070616E696300616C6C4B
:105BEC00005A00252B3033643A2530327500255984
:105BFC002D256D2D25645425483A254D3A255325E0
:105C0C007A0061736374696D650000000000000028
:105C1C0000000000614E0D00514E0D00534E0D0062
:105C2C000000000000000000394F0D00894F0D00EE
:105C3C00974F0D00594C0D00754F0D003B4F0D004B
:105C4C00514F0D00834F0D00674F0D00354F0D0068
:105C5C00000000000000000045500D0095500D00A4
:105C6C00A3500D00594C0D0059500D007B500D00E8
:105C7C0067500D008F500D0047500D004B500D001C
:105C8C00000000000000000049510D0093510D0070
:105C9C006B510D004B510D0073510D007B510D00DC
:105CAC0083510D008B510D0000000000000000001E
:105CBC002B520D0021520D0017520D000D520D00EC
:105CCC0001520D00F5510D00E9510D00E1510D008F
:105CDC00D7510D00CD510D0099530D00000000005F
:105CEC000000000031530D003B530D0045530D00D7
:105CFC004F530D0059530D0065530D0071530D009A
:105D0C007D530D0085530D008F530D0099530D00DD
:105D1C000000000000000000000000000000000077
:105D2C000000000000000000000000000000000067
:105D3C000000000000000000000000000000000057
:105D4C000000000000000000000000000000000047
:105D5C000000000000000000000000000000000037
:105D6C000000000000000000000000000000000027
:105D7C0043000000B7410D0061460D00B5460D0013
:105D8C00494C0D00094D0D00194D0D00514D0D00E4
:105D9C00E1520D0065540D0015550D00A9550D006F
:105DAC002D560D00F1560D00B5570D0000000000EA
:045DBC0000000000E3
:105DC0000E5C0D00000000001C5D0D003C5D0D0030
:105DD0005C5D0D00000000000000000000000000FD
:105DE000000000007C5D0D000000000000000000CD
:105DF00000000000000000000000000000000000A3
:105E00000000000000000000000000000000000092
:105E10000000000000000000000000000000000082
:085E20000000000060E3032014
:105E2800FFFFFFFF00000102030405060708090A37
:105E38000B0C0D0E0F101112131415161718191A32
:085E48001B1C1D1E1F20280079
:045E5000785634123A
:04000003D000401CCD
:00000001FF
