:02000002D0002C
:1040000000400D00B05E0D00000006000C00050130
:0840100004017B050000000023
:0440180024590D001A
:10401C0009480A49884208B505D0094A824202D0AB
:10402C00121A01F036FC0748074A0021121A01F057
:10403C003BFC014808BD00BF54E30320205E0D008B
:10404C00BCE30320BCE30320F0E7032070B500F0D1
:10405C00B7FE074C074BE41AA40800251E46A542E0
:10406C0004D056F8253098470135F8E770BD00BFED
:10407C001C5E0D00E05D0D0000F015B808B500F0F9
:10408C0055F8BDE8084000F069BE00F07FBA00F0BA
:10409C0085BA00F083BA0078B0FA80F04009704716
:1040AC0001230370704773B50024012000F0E2F97E
:1040BC00012523466A46082644F6206120460094D2
:1040CC000195ADF8006000F051FA00F067FF4FF475
:1040DC00E13100F057FF2946042001F001FA29468E
:1040EC00052001F0FDF92946072001F0F9F92946D0
:1040FC00062001F0F5F92946304601F0F1F9214688
:10410C00122001F0EDF92146022001F0E9F92146D7
:10411C00212001F0E5F900F063FB042100F07EFBA7
:10412C002146212001F0DCF902B070BD08B5002158
:10413C00042001F0E6F94FF47A7000F0D1FD012172
:10414C00042001F0DEF94FF47A7000F0C9FD002173
:10415C00052001F0D6F94FF47A7000F0C1FD012171
:10416C000520BDE8084001F0CCB908B500F016F800
:10417C0000210120BDE8084000F08CB908B5024BC5
:10418C001B689B68019308BD6802030008B5024BCD
:10419C001B68DB68019308BD6802030008B5024B7D
:1041AC001B681B68019308BD2C02030008B5024B69
:1041BC001B689B68019308BD2C02030008B5024BD9
:1041CC001B68DB68019308BD2C02030008B5024B89
:1041DC001B681B69019308BD2C02030008B5024B38
:1041EC001B68DB69019308BD3002030008B5024B64
:1041FC001B681B6A019308BD3002030008B5024B13
:10420C001B685B68019308BD1802030008B5024BDC
:10421C001B68DB68019308BD1802030008B5024B4C
:10422C001B685B69019308BD1802030008B5024BBB
:10423C001B689B68019308BD7802030008B5024B0C
:10424C001B681B6C019308BD7802030008B5034B77
:10425C001B68D3F89830019308BD00007802030066
:10426C0008B5034B1B68D3F8F030019308BD000070
:10427C007802030008B5024B1B689B68019308BDCC
:10428C004802030008B5024B1B681B69019308BD6B
:10429C004802030008B5024B1B685B69019308BD1B
:1042AC004802030008B5024B1B681B6B019308BD49
:1042BC004802030008B5024B1B685B6C019308BDF8
:1042CC004802030008B5024B1B68DB6C019308BD68
:1042DC004802030008B5024B1B685B6D019308BDD7
:1042EC004802030008B5024B1B685B69019308BDCB
:1042FC006402030008B5024B1B681B68019308BDE0
:10430C003C02030008B5024B1B68DB68019308BD37
:10431C003C02030008B5024B1B681B69019308BDE6
:10432C003C02030008B5024B1B685B69019308BD96
:10433C003C02030008B5024B1B689B69019308BD46
:10434C003C02030008B5024B1B68DB69019308BDF6
:10435C003C02030008B5024B1B681B6A019308BDA5
:10436C003C02030008B5024B1B689B6A019308BD15
:10437C003C02030008B5024B1B681B6A019308BD85
:10438C002802030008B5024B1B685B6A019308BD49
:10439C002802030008B5024B1B689B6A019308BDF9
:1043AC002802030008B5024B1B68DB6A019308BDA9
:1043BC002802030008B5024B1B681B6B019308BD58
:1043CC002802030008B5024B1B685B6B019308BD08
:1043DC002802030008B5024B1B681B6C019308BD37
:1043EC002802030008B5024B1B681B68019308BD2B
:1043FC004C02030008B5024B1B685B68019308BDB7
:10440C004C02030008B5024B1B681B69019308BDE5
:10441C004C02030008B5024B1B685B69019308BD95
:10442C004C02030008B5024B1B689B69019308BD45
:10443C004C02030008B5024B1B68DB69019308BDF5
:10444C004C02030008B5024B1B681B6A019308BDA4
:10445C004C02030008B5024B1B685B6B019308BD53
:10446C006002030008B5024B1B681B6D019308BD6D
:10447C006002030008B5024B1B685B68019308BD22
:10448C002002030008B5024B1B685B69019308BD51
:10449C002002030008B5024B1B68DB6A019308BDC0
:1044AC002002030008B5034B1B68D3F88830019336
:1044BC0008BD00002002030008B5034B1B68D3F8AD
:1044CC009430019308BD00002002030008B5024B94
:1044DC001B685B68019308BD4002030008B5024BE2
:1044EC001B689B68019308BD4002030008B5024B92
:1044FC001B68DB68019308BD4002030008B5024B42
:10450C001B681B69019308BD4002030008B5024BF0
:10451C001B685B69019308BD4002030008B5024BA0
:10452C001B689B69019308BD4002030008B5024B50
:10453C001B68DB69019308BD4002030008B5024B00
:10454C001B681B6A019308BD4002030008B5024BAF
:10455C001B681B6B019308BD4002030008B5024B9E
:10456C001B685B6B019308BD4002030008B5024B4E
:10457C001B689B6B019308BD4402030008B5024BFA
:10458C001B68DB6B019308BD4402030008B5024BAA
:10459C001B681B68019308BD1C02030008B5024B85
:1045AC001B685B68019308BD1C02030000221146C6
:1045BC004068FFF7C3BF002211464068FFF7CEBF2B
:1045CC0000224068FFF7C2BF002281F00101406861
:1045DC00FFF7ACBF00231A4619464068FFF79EBF91
:1045EC0000231A4619464068FFF790BF0022114677
:1045FC004068FFF783BF002211464068FFF76EBF8B
:10460C00002202214068FFF771BF00231A46406860
:10461C00FFF75CBF024B03225A60024A1A607047D4
:10462C00C0E3032040590D00704710B5102104461B
:10463C0000F0C7FF204610BD70B5084B0360044660
:10464C0000250E4640F80C5FFFF72CFE3046267115
:10465C00FFF7C4FDA560204670BD00BF74590D0066
:10466C000079FFF7C3BD0000044B00204FF6FF722A
:10467C00187058809A80FFF7FDBE00BFC8E3032076
:10468C0070470020704710B51421044600F099FFC4
:10469C00204610BDFFF7FBBC08B50A20024A0021DA
:1046AC00FFF7D8FE08BD00BF19420D0010B5036816
:1046BC0004469B689847A368013BA3602BB9236809
:1046CC002046DB68BDE81040184710BD10B500232C
:1046DC000370044B04461868FFF7F4FD01232370A4
:1046EC00204610BDD8E3032010B5037804461BB157
:1046FC00024B1868FFF7EEFD204610BDD8E30320EF
:10470C0008B582798B799A4206D1062201F0B2F86B
:10471C00B0FA80F0400908BD002008BD10B58369CF
:10472C00C26903EBC2029342184606D0046824887F
:10473C008C4203F10803F6D110BD002010BD10B55A
:10474C000A6852F8023F03605368436010BD1FB5FE
:10475C0002680B6812881B889A420C460CD10146E1
:10476C006846FFF7ECFF214602A8FFF7E8FF02A915
:10477C006846FFF7C5FF00B9002004B010BD00006B
:10478C0010B504463420FFF780FC014668B10023C5
:10479C00036043608360C360036143618361C361F1
:1047AC00036243628362C3620363216019B90A4ADC
:1047BC000A20FFF74FFE0020FFF738FD20B1064A14
:1047CC0000210A20FFF746FE002221680348FFF76C
:1047DC0047FD204610BD00BF19420D00C14A0D0017
:1047EC0010B50A4C2368DB070ED42046FFF753FCA8
:1047FC0050B10748FFF7C4FF2046FFF751FC054AAC
:10480C000549034800F0D8FE014810BDD4E303204D
:10481C00D0E30320BCE30320D5480D0013B50C46B0
:10482C0001A8FFF753FF00212046FFF707FD0446C0
:10483C0001A8FFF759FF204602B010BD0B680360BA
:10484C0013B15A6801325A60704710B504460068BB
:10485C0028B14368013B43600BB9FFF727FF2046A3
:10486C0010BD70B504684368054604EBC306A64248
:10487C0004D0201DFFF7E9FF0834F8E72868FFF79C
:10488C008DFE284670BD70B504684368054604EB80
:10489C00C306A64204D0201DFFF7D7FF0834F8E763
:1048AC002868FFF77BFE284670BD10B5046904F13B
:1048BC001800FFF7E8FF04F10C00FFF7D2FF2046C9
:1048CC00BDE81040FFF7E3BBF8B504680746C4B178
:1048DC00A569E36905EBC306AE4204D0281DFFF7BA
:1048EC00B4FF0835F8E7A069FFF758FE04F10C0097
:1048FC00FFF7C9FF2046FFF7B4FF3421204600F034
:10490C0060FE3846F8BD000073B5002505604560B3
:10491C0006462420FFF7B9FB044678B103464FF650
:10492C00FF7223F8022BC0F802505D608572C572CD
:10493C00C560056145618561C56105620023142070
:10494C000193FFF7A2FB034628B10122426082606B
:10495C00084A0260046102A8726840F8042D736072
:10496C003460FFF772FF33680BB9FFF795FE3046E2
:10497C0002B070BD84590D00884270B515461AD925
:10498C00904219D2A1F10806511A0439151F441886
:10499C002B1F9E4225D0042C07D055F8043C44F81C
:1049AC00043C29462046FFF749FF2846FFF74DFFF8
:1049BC00083D083CECE714D00C1D061D231F9D423E
:1049CC000FD0042E07D054F8043C46F8043C214682
:1049DC003046FFF733FF2046FFF737FF0834083621
:1049EC00ECE770BD2DE9F041046843680546884644
:1049FC0004EBC307A74218D041462046FFF7A7FE99
:104A0C00064608B90834F5E78CB1201DFFF71DFFE9
:104A1C002B686A6804F1080103EBC2022046FFF719
:104A2C00ABFF6B68013B6B6002E0002600E02646A2
:104A3C003046BDE8F081F7B5044651F8043B4768B1
:104A4C00009301A8FFF7FAFE6668A3689E4214DB88
:104A5C000136002E0BDDF000FFF798FD054618B36C
:104A6C0094E8060001EBC202FFF786FF00E0002588
:104A7C002068FFF793FD2560A6602668626806EB48
:104A8C00C70506EBC202294605F10800FFF774FFC3
:104A9C0035B1009B46F8373001A9281DFFF7CEFE33
:104AAC00636801336360012501A8FFF7CEFE284639
:104ABC0003B0F0BD2DE9F04104468EB003A80D46BD
:104ACC00FFF704FE2368032B02D0042B42D087E0AF
:104ADC0004A8FFF719FF049B22891A8062680499C5
:104AEC0052F8083FC1F802305368C1F8063007A8E5
:104AFC00049B069305A9FFF7A1FE06A905F1180072
:104B0C00FFF799FF044607A8FFF79FFE20230693A3
:104B1C0074B9364B009306AA2346354907943220C4
:104B2C00FFF7A0FC049B21461888FFF78FFB0DE0D4
:104B3C00304A0092002306AA2D4907930120FFF763
:104B4C0091FC6B6A13B1E96A04A8984705A8FFF7B2
:104B5C007CFE45E021892846FFF7E0FD074600284A
:104B6C003ED00468A369E1694FF6FF72228003EB23
:104B7C00C101994203D053F8080B4280F9E7E6686B
:104B8C00236906EBC308B04504D0301DFFF75DFE6A
:104B9C000836F8E700232361A669E36906EBC3082E
:104BAC00B04504D0301DFFF750FE0836F8E700235F
:104BBC00E361A372E372AB6A13B1296B3846984771
:104BCC0020230D4A069300920023094907930120E4
:104BDC0006AAFFF747FC394605F11800FFF702FF5C
:104BEC0003A8FFF781FD0EB0BDE8F081FA590D0066
:104BFC0098590D00205A0D003D5A0D000248002313
:104C0C000360FFF757BB00BFD8E30320F8B5064697
:104C1C000D468F180024BD420CD0336815F8011BCB
:104C2C009B6830469847002801DB0444F3E7002CCE
:104C3C0008BF04462046F8BD70B505460C4608462C
:104C4C0049B100F061FE2B68024621462846DB681C
:104C5C00BDE87040184770BD03689B68184730B5B5
:104C6C008BB00B4600218DF82410012A98BF0A2224
:104C7C000DF12304B3FBF2F505FB123303F0FF0334
:104C8C00092B94BF30333733DBB2214604F801399A
:104C9C002B46002DEED1FFF7CFFF0BB030BD10B47B
:104CAC002AB903685DF8044B9B68C9B21847D2B2A5
:104CBC005DF8044BFFF7D3BFFFF7F1BF014B024A7E
:104CCC001A607047DCE30320AB5B0D00024B1A68E3
:104CDC00024B1A60704700BF54E30320E0E303204B
:104CEC000021FFF7CFBB10B58368044613B1032234
:104CFC0001469847204610BD10B50446FFF7F3FF58
:104D0C00204610BD0348044A04490023836000F088
:104D1C0053BC00BFE4E30320BCE30320054D0D00AE
:104D2C0008B50C4B33B100F039F903681B6998478F
:104D3C00002809DC084B63B100F0B2F903681B6969
:104D4C009847002803DC08BDAFF30080F2E7AFF30F
:104D5C00008008BD000000000000000008B5FFF74F
:104D6C00DFFFFFF75BFA014B186008BD34E7032047
:104D7C0007B5002300931A466FF07701FFF79CFBF1
:104D8C0003B05DF804FB000007B543880A2B08D07C
:104D9C00502B09D1094B1B683BB103B05DF804EBF8
:104DAC001847FFF7E5FF06E0002300931A466FF063
:104DBC007701FFF781FB03B05DF804FBF4E30320FC
:104DCC0010B5FFF71BFA044600F076FD074B13B144
:104DDC002046AFF3008000210448FFF7CFFB0021F1
:104DEC000348BDE81040FFF75DBB00BF00000000AA
:104DFC00954D0D00704710B51821044600F0E1FBED
:104E0C00204610BDF0B5037D062B8DB00E4600F18B
:104E1C0004074FF0000402D000F1080518E00CADB7
:104E2C00394605F8304D2F232A460A20FFF75AFA47
:104E3C00284600F069FD33680246DB682946304697
:104E4C0098470FE024B12E213046FFF705FF0444AC
:104E5C0015F8011D0A223046FFF72EFFBD4204440F
:104E6C00F0D120460DB0F0BD10B5054B0446112213
:104E7C0040F8043B002100F017FD204610BD00BF98
:104E8C004C5C0D000346074A10B543F8042B01F1A6
:104E9C00100251F8044B43F8044B9142F9D10A78B3
:104EAC001A7010BD4C5C0D0010B59DF8084044EA1A
:104EBC00032343EA024242EA016104234160037581
:104ECC0010BD37B50D788B784A78C9780091294692
:104EDC00FFF7EAFF03B030BD41747047704708B567
:104EEC000021007CFFF79EFA30EA200028BF4FF02B
:104EFC00FF3008BD08B50121007CFFF793FA30EABA
:104F0C00200028BF4FF0FF3008BD08B5007CFFF72C
:104F1C0081FA20EAE07008BD08B5007CFFF772FA50
:104F2C0020EAE07008BD007CFFF78CBA10B51421A4
:104F3C00044600F046FB204610BD38B50446007C04
:104F4C000D46FFF767FA002801DC607C28B1294682
:104F5C00207CFFF76FFA20EAE07038BD10B50446EC
:104F6C00002363604FF47A73A360054B2360012325
:104F7C000846217463741146FFF734FA204610BDBD
:104F8C00605C0D000022007CFFF734BA10B51422CF
:104F9C000446002100F088FC204610BD30B50E4DB3
:104FAC0087B001A8FFF7F2FF296811F0010410D1B6
:104FBC002846FFF770F860B101AA21460748FFF7B1
:104FCC00CDFF2846FFF76CF8054A0649034800F068
:104FDC00F3FA024807B030BDF8E30320FCE30320EA
:104FEC00BCE30320E94E0D0070474174704708B5CF
:104FFC00007CFFF7B7F920EAE07008BD08B5007C2B
:10500C00FFF788F920EAE07008BD08B5007CFFF7CF
:10501C0091F930EA200028BF4FF0FF3008BD08B5E9
:10502C00007CFFF77FF930EA200028BF4FF0FF30FB
:10503C0008BD007CFFF786B910B51421044600F0BA
:10504C00C0FA204610BD70B5457C04460E4625B905
:10505C00007CFFF787F9002805DD3146207CBDE890
:10506C007040FFF74FB9284670BD000010B50446DC
:10507C0008461146002262604FF47A72A260054A1B
:10508C0022600122207462741A46FFF733F920461D
:10509C0010BD00BF905C0D00007CFFF75BB90000F9
:1050AC0038B50C4D296811F0010411D12846FEF7D2
:1050BC00F2FF68B1084A094B09482146FFF7D6FFB1
:1050CC002846FEF7EDFF074A0749054800F074FA39
:1050DC00034838BDA8E40320ACE4032024E40320F7
:1050EC0010E40320BCE30320F54F0D007047F8B526
:1050FC00064615460C468F18BC4206D0336814F889
:10510C00011B9B6830469847F6E72846F8BD0022FD
:10511C00007CFFF72FB90021007CFFF733B9002189
:10512C00007CFFF737B90021007CFFF73BB9002169
:10513C00007CFFF73FB910B51421044600F041FA8A
:10514C00204610BD10B504464FF47A730846A36090
:10515C000021044B207461602360FFF73BF920466B
:10516C0010BD00BFC05C0D000021007CFFF72AB908
:10517C00002211464068FFF7E1B900221146406851
:10518C00FFF7ECB900224068FFF7E0B9002281F08C
:10519C0001014068FFF7CAB900231A460121406893
:1051AC00FFF7BCB900231A4619464068FFF7AEB9A1
:1051BC00002211464068FFF7A1B900221146406851
:1051CC00FFF78CB9002202214068FFF78FB900234A
:1051DC001A464068FFF77AB938B5054688B10468B5
:1051EC004CB1A3681BB103222146204698471021DD
:1051FC00204600F0E6F928461421BDE8384000F0BE
:10520C00E0B938BD10B103685B681847704710B53A
:10521C0003680446BBB15868FFF72CF878B92368CB
:10522C005A7C12B95868FFF72DF823685868FFF7B5
:10523C0031F820680023236028B1FFF7CDFF2068E8
:10524C0008B1FFF7C9FF204610BD000038B50C4B64
:10525C0003600446D0F8CC0108B1FEF71AFFD4F86D
:10526C00C45135B12846FFF7D2FF0421284600F07F
:10527C00A8F9A06808B1FFF7C5FF204638BD00BFEC
:10528C00E85C0D0038B50E4C0E4B23600025022354
:10529C0004F5E4706360A560C4F8C451C4F8C85147
:1052AC00FFF708F8084BC4F8CC5184F8D0512360B0
:1052BC002046064A0649BDE8384000F07DB900BFDB
:1052CC0030E50320505D0D00E85C0D00BCE30320CD
:1052DC0059520D00002211464068FFF70FB9002209
:1052EC0011464068FFF72AB9002211464068FFF7C3
:1052FC0035B900224068FFF729B9002281F001017D
:10530C004068FFF713B900231A4619464068FFF7A7
:10531C0005B900231A4619464068FFF7F7B8002272
:10532C0011464068FFF7DAB8002202214068FFF707
:10533C00DDB800231A464068FFF7C8B8024B0422B8
:10534C005A60024A1A60704704E703201C5D0D0086
:10535C0000231A464068FFF7B9B8002202214068C2
:10536C00FFF7C4B8002211464068FFF7B7B8002217
:10537C0011464068FFF7C2B800231A461946406828
:10538C00FFF7C4B800231A4619464068FFF7C6B8A1
:10539C00002281F001014068FFF7C8B80022406884
:1053AC00FFF7D4B8002211464068FFF7D7B80022A7
:1053BC0011464068FFF7C2B82DE9F043002495B0C0
:1053CC0016460D460746FFF74FFD214620220CA836
:1053DC00009400F069FA40230C9321466B460CAA0A
:1053EC003046FEF7D3FE0446002844D10246012184
:1053FC006868FFF783F80221804622466868FFF749
:10540C007DF8009E81462146002E34D0002932D1F1
:10541C007368022B02D00A2B09D02AE0B8F1000FD6
:10542C0027D0716938460431FFF74BFD20E0B9F104
:10543C00000F1ED07469112201A800F035FA062362
:10544C008DF8143001AD04F108031834186859684C
:10545C002A4603C20833A3421546F7D101A906A870
:10546C0007ADFFF70FFD0FCD3C1D0FC42B6823704C
:10547C000121F669C8E70098FEF780FE384615B0A2
:10548C00BDE8F083024B034A1A6000225A60704751
:10549C000CE70320505D0D0010B504460F48FFF7D4
:1054AC00DFF828B1A4F10B03022B01D8002010BDAA
:1054BC0000F062F8FFF758FE08B1012CF6D9FFF79F
:1054CC00EFFDFFF7E9FD18B1A4F10903012BEDD9AC
:1054DC00232C8CBF0020012010BD00BF14E703203B
:1054EC00232838B504460D460AD8FF2908D0FFF703
:1054FC00D3FF28B129462046BDE83840FEF756BEFA
:10550C0038BD38B504460D46FEF758FEFF2810D0BE
:10551C00062804D84D2323FA00F0C30709D42046EB
:10552C00FFF7BAFF28B129462046BDE83840FEF700
:10553C004DBE38BD70B50C4C0C4E0D4D00212046A7
:10554C00FFF77AF820460B4C3246294600F034F827
:10555C0001212046FFF770F8324629462046BDE867
:10556C00704000F029B800BF14E70320BCE303200F
:10557C0035460D0024E7032038B50B4D296811F092
:10558C0001040FD12846FEF786FD58B12146074885
:10559C00FFF7D8FD2846FEF783FD054A0549034869
:1055AC0000F00AF8014838BD38E703203CE7032037
:1055BC00BCE30320F9500D000B460146184600F0E1
:1055CC004BB9FEF764BD0000184B1A68D1075CBFDD
:1055DC0001221A60164B1A68D2075CBF01221A60AE
:1055EC00144B1A68D0075CBF01221A60124B1A6860
:1055FC00D1075CBF01221A60104B1A68D2075CBF3E
:10560C0001221A600E4B1A68D0075CBF01221A6087
:10561C000C4B1A68D1075CBF01221A600A4B1A683E
:10562C00D2075CBF01221A60704700BF6CE70320F1
:10563C0068E7032064E7032060E703205CE70320AE
:10564C0058E7032054E7032050E70320244B1A6843
:10565C00D0075CBF01221A60224B1A68D1075CBFCD
:10566C0001221A60204B1A68D2075CBF01221A6013
:10567C001E4B1A68D0075CBF01221A601C4B1A68BB
:10568C00D1075CBF01221A601A4B1A68D2075CBFA3
:10569C0001221A60184B1A68D0075CBF01221A60ED
:1056AC00164B1A68D1075CBF01221A60144B1A689A
:1056BC00D2075CBF01221A60124B1A68D0075CBF7C
:1056CC0001221A60104B1A68D1075CBF01221A60C4
:1056DC000E4B1A68D2075CBF01221A60704700BFDC
:1056EC009CE7032098E7032094E7032090E703202E
:1056FC008CE7032088E7032084E7032080E703205E
:10570C007CE7032078E7032074E7032070E703208D
:10571C00244B1A68D0075CBF01221A60224B1A680E
:10572C00D1075CBF01221A60204B1A68D2075CBFFC
:10573C0001221A601E4B1A68D0075CBF01221A6046
:10574C001C4B1A68D1075CBF01221A601A4B1A68ED
:10575C00D2075CBF01221A60184B1A68D0075CBFD5
:10576C0001221A60164B1A68D1075CBF01221A601D
:10577C00144B1A68D2075CBF01221A60124B1A68CC
:10578C00D0075CBF01221A60104B1A68D1075CBFAE
:10579C0001221A600E4B1A68D2075CBF01221A60F4
:1057AC00704700BFCCE70320C8E70320C4E7032001
:1057BC00C0E70320BCE70320B8E70320B4E70320CD
:1057CC00B0E70320ACE70320A8E70320A4E70320FD
:1057DC00A0E70320184B1A68D1075CBF01221A609E
:1057EC00164B1A68D2075CBF01221A60144B1A6858
:1057FC00D0075CBF01221A60124B1A68D1075CBF3C
:10580C0001221A60104B1A68D2075CBF01221A6081
:10581C000E4B1A68D0075CBF01221A600C4B1A6839
:10582C00D1075CBF01221A600A4B1A68D2075CBF11
:10583C0001221A60704700BFECE70320E8E7032061
:10584C00E4E70320E0E70320DCE70320D8E70320AC
:10585C00D4E70320D0E7032010B5054C13462CB138
:10586C000A4601460220AFF3008010BD204610BD51
:10587C000000000010B501390244904207D010F826
:10588C00013B11F8014FA342F7D0181B10BD0020AB
:10589C0010BD10B5431E0A44914204D011F8014BBF
:1058AC0003F8014FF8E710BD02440346934202D0BF
:1058BC0003F8011BFAE7704738B5124B1C68A36B51
:1058CC000546D3B91820FEF761FE43F20E33A063F0
:1058DC0003804AF6CD33438041F2342383804EF269
:1058EC006D63C3804DF6EC630381052343810B2369
:1058FC00838101220023C0E90423A36B00221D61D4
:10590C005A6138BDB8E30320034613F8012B002A73
:10591C00FBD1181A013870471D400D0059400D007D
:10592C0085400D0089400D000000000000000000C3
:10593C000000000017460D000D460D0003460D003B
:10594C00F9450D00ED450D00E1450D00D5450D0067
:10595C00CD450D00C3450D00B9450D00C5530D00D7
:10596C00000000000000000035460D0037460D0019
:10597C0000000000000000008D460D0093460D0055
:10598C00B7480D00A1460D008F460D00776972696E
:10599C006E672E626C650053746172742064697357
:1059AC00636F766572696E6720736572766963657D
:1059BC00732E00537461727420646973636F76651F
:1059CC0072696E6720636861726163746572697372
:1059DC00746963732E005065657220646576696323
:1059EC0065206973206D697373696E672100466168
:1059FC00696C656420746F20617070656E642070D2
:105A0C006565722043656E7472616C20646576699D
:105A1C0063652E00436F6E6E6563746564206279F6
:105A2C002043656E7472616C206465766963652EC3
:105A3C0000446973636F6E6E65637465642062798C
:105A4C002072656D6F7465206465766963652E00E0
:105A5C0043616E6E6F7420616464206E6577207094
:105A6C00656572206465766963652E004E657720E6
:105A7C007065726970686572616C20697320636F00
:105A8C006E6E65637465642E004661696C65642096
:105A9C00746F20617070656E6420646973636F76D7
:105AAC0065726564206368617261637465726973A1
:105ABC007469632E004661696C656420746F2061A3
:105ACC007070656E6420646973636F76657265646B
:105ADC0020736572766963652E004661696C656436
:105AEC0020746F20617070656E64206C6F63616CE4
:105AFC002063686172616374657269737469632E83
:105B0C00004475706C6963617465642063686172CC
:105B1C00616374657269737469632063616E6E6F1F
:105B2C00742062652061646465642E006261756432
:105B3C000053657269616C0053657269616C310068
:105B4C007479706500706172616D00636D640069D9
:105B5C006400686E64007374726D0066696C740026
:105B6C006C766C0061646448616E646C6572007282
:105B7C00656D6F766548616E646C657200656E75F7
:105B8C006D48616E646C657273004A534F4E53746A
:105B9C007265616D4C6F6748616E646C6572006113
:105BAC00707000253031307520005D2000256400B8
:105BBC002C200028293A2000205B00636F646520AC
:105BCC003D200025690064657461696C73203D207B
:105BDC00000D0A0066006C6E00666E00636F6465F3
:105BEC000064657461696C006E6F6E65007472613F
:105BFC00636500696E666F007761726E0065727224
:105C0C006F720070616E696300616C6C005A0025E4
:105C1C002B3033643A253032750025592D256D2DE6
:105C2C0025645425483A254D3A2553257A0061734D
:105C3C006374696D65000000000000000000000046
:105C4C00114E0D00014E0D00034E0D000000000022
:105C5C0000000000E94E0D00394F0D00474F0D00BC
:105C6C00194C0D00254F0D00EB4E0D00014F0D0092
:105C7C00334F0D00174F0D00E54E0D0000000000D6
:105C8C0000000000F54F0D0045500D0053500D0065
:105C9C00194C0D0009500D002B500D0017500D0024
:105CAC003F500D00F74F0D00FB4F0D0000000000A2
:105CBC0000000000F9500D0043510D001B510D0068
:105CCC00FB500D0023510D002B510D0033510D00D5
:105CDC003B510D000000000000000000DB510D00E6
:105CEC00D1510D00C7510D00BD510D00B1510D002A
:105CFC00A5510D0099510D0091510D0087510D00CA
:105D0C007D510D00C5530D00000000000000000087
:105D1C003F530D0035530D002B530D00E1520D0078
:105D2C001F530D0013530D0007530D00FF520D00B0
:105D3C00F5520D00EB520D00C5530D000000000094
:105D4C00000000005D530D0067530D0071530D00F2
:105D5C007B530D0085530D0091530D009D530D0089
:105D6C00A9530D00B1530D00BB530D00C5530D00CD
:105D7C000000000000000000000000000000000017
:105D8C000000000000000000000000000000000007
:105D9C0000000000000000000000000000000000F7
:105DAC0000000000000000000000000000000000E7
:105DBC0000000000000000000000000000000000D7
:105DCC0000000000000000000000000000000000C7
:105DDC004300000077410D0021460D0075460D0073
:105DEC00094C0D00C94C0D00D94C0D00114D0D0086
:105DFC0091520D0049530D0091540D0041550D0069
:105E0C00D5550D0059560D001D570D00E1570D00CD
:045E1C000000000082
:105E20003A5C0D00000000007C5D0D009C5D0D00E3
:105E3000BC5D0D000000000000000000000000003C
:105E400000000000DC5D0D0000000000000000000C
:105E50000000000000000000000000000000000042
:105E60000000000000000000000000000000000032
:105E70000000000000000000000000000000000022
:085E80000000000058E30320BC
:105E8800FFFFFFFF00000102030405060708090AD7
:105E98000B0C0D0E0F101112131415161718191AD2
:085EA8001B1C1D1E1F20280019
:045EB00078563412DA
:04000003D000401CCD
:00000001FF
